{"contracts/Gameboard.sol":{"Gameboard":{"abi":[{"inputs":[{"internalType":"uint8","name":"width_","type":"uint8"},{"internalType":"uint8","name":"height_","type":"uint8"},{"internalType":"uint32","name":"color1_","type":"uint32"},{"internalType":"uint32","name":"color2_","type":"uint32"}],"stateMutability":"nonpayable","type":"constructor"},{"inputs":[],"name":"color1","outputs":[{"internalType":"uint32","name":"","type":"uint32"}],"stateMutability":"view","type":"function"},{"inputs":[],"name":"color2","outputs":[{"internalType":"uint32","name":"","type":"uint32"}],"stateMutability":"view","type":"function"},{"inputs":[],"name":"getBoard","outputs":[{"internalType":"uint8","name":"","type":"uint8"},{"internalType":"uint8","name":"","type":"uint8"},{"internalType":"uint32","name":"","type":"uint32"},{"internalType":"uint32","name":"","type":"uint32"}],"stateMutability":"view","type":"function"},{"inputs":[],"name":"height","outputs":[{"internalType":"uint8","name":"","type":"uint8"}],"stateMutability":"view","type":"function"},{"inputs":[{"internalType":"uint8","name":"width_","type":"uint8"},{"internalType":"uint8","name":"height_","type":"uint8"},{"internalType":"uint32","name":"color1_","type":"uint32"},{"internalType":"uint32","name":"color2_","type":"uint32"}],"name":"setBoard","outputs":[],"stateMutability":"nonpayable","type":"function"},{"inputs":[],"name":"width","outputs":[{"internalType":"uint8","name":"","type":"uint8"}],"stateMutability":"view","type":"function"}],"devdoc":{"kind":"dev","methods":{"getBoard()":{"returns":{"_0":"width","_1":"height","_2":"color1","_3":"color2"}},"setBoard(uint8,uint8,uint32,uint32)":{"params":{"color1_":"board color 1","color2_":"board color 2","height_":"board height","width_":"board width"}}},"title":"@author","version":1},"evm":{"bytecode":{"linkReferences":{},"object":"6080346100b757601f6102f538819003918201601f19168301916001600160401b038311848410176100bc578084926080946040528339810103126100b757610047816100d2565b9065ffffffff000061005b602083016100d2565b61ff00610076606061006f604087016100e0565b95016100e0565b60ff69ffffffff0000000000006000549260301b1696169060018060501b031916179160081b16179160101b16171760005560405161020390816100f28239f35b600080fd5b634e487b7160e01b600052604160045260246000fd5b519060ff821682036100b757565b519063ffffffff821682036100b75756fe60806040818152600436101561001457600080fd5b600091823560e01c9081630ef26743146101ad575080633264a34b146101675780635115bdff146101425780639ededf7714610123578063bb632c4d1461008c5763ef60f12a1461006457600080fd5b3461008857816003193601126100885763ffffffff6020925460301c169051908152f35b5080fd5b50346100885760803660031901126100885760043560ff811680910361011f576024359060ff8216820361011b576044359063ffffffff9283831683036101175760643593841684036101175761ff0065ffffffff00009269ffffffff00000000000088549660301b169569ffffffffffffffffffff1916179160081b16179160101b161717825551f35b8580fd5b8380fd5b8280fd5b503461008857816003193601126100885760ff60209254169051908152f35b503461008857816003193601126100885763ffffffff6020925460101c169051908152f35b5034610088578160031936011261008857608091549080519160ff8116835260ff8160081c16602084015263ffffffff91828260101c169084015260301c166060820152f35b83903461008857816003193601126100885760ff6020925460081c168152f3fea2646970667358221220a877c66767108c8c1eb4263b90d9f64fe7360ddfa7c00c268ab49b503594f1ba64736f6c63430008100033","opcodes":"PUSH1 0x80 CALLVALUE PUSH2 0xB7 JUMPI PUSH1 0x1F PUSH2 0x2F5 CODESIZE DUP2 SWAP1 SUB SWAP2 DUP3 ADD PUSH1 0x1F NOT AND DUP4 ADD SWAP2 PUSH1 0x1 PUSH1 0x1 PUSH1 0x40 SHL SUB DUP4 GT DUP5 DUP5 LT OR PUSH2 0xBC JUMPI DUP1 DUP5 SWAP3 PUSH1 0x80 SWAP5 PUSH1 0x40 MSTORE DUP4 CODECOPY DUP2 ADD SUB SLT PUSH2 0xB7 JUMPI PUSH2 0x47 DUP2 PUSH2 0xD2 JUMP JUMPDEST SWAP1 PUSH6 0xFFFFFFFF0000 PUSH2 0x5B PUSH1 0x20 DUP4 ADD PUSH2 0xD2 JUMP JUMPDEST PUSH2 0xFF00 PUSH2 0x76 PUSH1 0x60 PUSH2 0x6F PUSH1 0x40 DUP8 ADD PUSH2 0xE0 JUMP JUMPDEST SWAP6 ADD PUSH2 0xE0 JUMP JUMPDEST PUSH1 0xFF PUSH10 0xFFFFFFFF000000000000 PUSH1 0x0 SLOAD SWAP3 PUSH1 0x30 SHL AND SWAP7 AND SWAP1 PUSH1 0x1 DUP1 PUSH1 0x50 SHL SUB NOT AND OR SWAP2 PUSH1 0x8 SHL AND OR SWAP2 PUSH1 0x10 SHL AND OR OR PUSH1 0x0 SSTORE PUSH1 0x40 MLOAD PUSH2 0x203 SWAP1 DUP2 PUSH2 0xF2 DUP3 CODECOPY RETURN JUMPDEST PUSH1 0x0 DUP1 REVERT JUMPDEST PUSH4 0x4E487B71 PUSH1 0xE0 SHL PUSH1 0x0 MSTORE PUSH1 0x41 PUSH1 0x4 MSTORE PUSH1 0x24 PUSH1 0x0 REVERT JUMPDEST MLOAD SWAP1 PUSH1 0xFF DUP3 AND DUP3 SUB PUSH2 0xB7 JUMPI JUMP JUMPDEST MLOAD SWAP1 PUSH4 0xFFFFFFFF DUP3 AND DUP3 SUB PUSH2 0xB7 JUMPI JUMP INVALID PUSH1 0x80 PUSH1 0x40 DUP2 DUP2 MSTORE PUSH1 0x4 CALLDATASIZE LT ISZERO PUSH2 0x14 JUMPI PUSH1 0x0 DUP1 REVERT JUMPDEST PUSH1 0x0 SWAP2 DUP3 CALLDATALOAD PUSH1 0xE0 SHR SWAP1 DUP2 PUSH4 0xEF26743 EQ PUSH2 0x1AD JUMPI POP DUP1 PUSH4 0x3264A34B EQ PUSH2 0x167 JUMPI DUP1 PUSH4 0x5115BDFF EQ PUSH2 0x142 JUMPI DUP1 PUSH4 0x9EDEDF77 EQ PUSH2 0x123 JUMPI DUP1 PUSH4 0xBB632C4D EQ PUSH2 0x8C JUMPI PUSH4 0xEF60F12A EQ PUSH2 0x64 JUMPI PUSH1 0x0 DUP1 REVERT JUMPDEST CALLVALUE PUSH2 0x88 JUMPI DUP2 PUSH1 0x3 NOT CALLDATASIZE ADD SLT PUSH2 0x88 JUMPI PUSH4 0xFFFFFFFF PUSH1 0x20 SWAP3 SLOAD PUSH1 0x30 SHR AND SWAP1 MLOAD SWAP1 DUP2 MSTORE RETURN JUMPDEST POP DUP1 REVERT JUMPDEST POP CALLVALUE PUSH2 0x88 JUMPI PUSH1 0x80 CALLDATASIZE PUSH1 0x3 NOT ADD SLT PUSH2 0x88 JUMPI PUSH1 0x4 CALLDATALOAD PUSH1 0xFF DUP2 AND DUP1 SWAP2 SUB PUSH2 0x11F JUMPI PUSH1 0x24 CALLDATALOAD SWAP1 PUSH1 0xFF DUP3 AND DUP3 SUB PUSH2 0x11B JUMPI PUSH1 0x44 CALLDATALOAD SWAP1 PUSH4 0xFFFFFFFF SWAP3 DUP4 DUP4 AND DUP4 SUB PUSH2 0x117 JUMPI PUSH1 0x64 CALLDATALOAD SWAP4 DUP5 AND DUP5 SUB PUSH2 0x117 JUMPI PUSH2 0xFF00 PUSH6 0xFFFFFFFF0000 SWAP3 PUSH10 0xFFFFFFFF000000000000 DUP9 SLOAD SWAP7 PUSH1 0x30 SHL AND SWAP6 PUSH10 0xFFFFFFFFFFFFFFFFFFFF NOT AND OR SWAP2 PUSH1 0x8 SHL AND OR SWAP2 PUSH1 0x10 SHL AND OR OR DUP3 SSTORE MLOAD RETURN JUMPDEST DUP6 DUP1 REVERT JUMPDEST DUP4 DUP1 REVERT JUMPDEST DUP3 DUP1 REVERT JUMPDEST POP CALLVALUE PUSH2 0x88 JUMPI DUP2 PUSH1 0x3 NOT CALLDATASIZE ADD SLT PUSH2 0x88 JUMPI PUSH1 0xFF PUSH1 0x20 SWAP3 SLOAD AND SWAP1 MLOAD SWAP1 DUP2 MSTORE RETURN JUMPDEST POP CALLVALUE PUSH2 0x88 JUMPI DUP2 PUSH1 0x3 NOT CALLDATASIZE ADD SLT PUSH2 0x88 JUMPI PUSH4 0xFFFFFFFF PUSH1 0x20 SWAP3 SLOAD PUSH1 0x10 SHR AND SWAP1 MLOAD SWAP1 DUP2 MSTORE RETURN JUMPDEST POP CALLVALUE PUSH2 0x88 JUMPI DUP2 PUSH1 0x3 NOT CALLDATASIZE ADD SLT PUSH2 0x88 JUMPI PUSH1 0x80 SWAP2 SLOAD SWAP1 DUP1 MLOAD SWAP2 PUSH1 0xFF DUP2 AND DUP4 MSTORE PUSH1 0xFF DUP2 PUSH1 0x8 SHR AND PUSH1 0x20 DUP5 ADD MSTORE PUSH4 0xFFFFFFFF SWAP2 DUP3 DUP3 PUSH1 0x10 SHR AND SWAP1 DUP5 ADD MSTORE PUSH1 0x30 SHR AND PUSH1 0x60 DUP3 ADD MSTORE RETURN JUMPDEST DUP4 SWAP1 CALLVALUE PUSH2 0x88 JUMPI DUP2 PUSH1 0x3 NOT CALLDATASIZE ADD SLT PUSH2 0x88 JUMPI PUSH1 0xFF PUSH1 0x20 SWAP3 SLOAD PUSH1 0x8 SHR AND DUP2 MSTORE RETURN INVALID LOG2 PUSH5 0x6970667358 0x22 SLT KECCAK256 0xA8 PUSH24 0xC66767108C8C1EB4263B90D9F64FE7360DDFA7C00C268AB4 SWAP12 POP CALLDATALOAD SWAP5 CALL 0xBA PUSH5 0x736F6C6343 STOP ADDMOD LT STOP CALLER "},"gasEstimates":{"creation":{"codeDepositCost":"103000","executionCost":"infinite","totalCost":"infinite"},"external":{"color1()":"2325","color2()":"2386","getBoard()":"2393","height()":"2274","setBoard(uint8,uint8,uint32,uint32)":"24662","width()":"2341"}},"methodIdentifiers":{"color1()":"5115bdff","color2()":"ef60f12a","getBoard()":"3264a34b","height()":"0ef26743","setBoard(uint8,uint8,uint32,uint32)":"bb632c4d","width()":"9ededf77"}},"storageLayout":{"storage":[{"astId":4,"contract":"contracts/Gameboard.sol:Gameboard","label":"width","offset":0,"slot":"0","type":"t_uint8"},{"astId":6,"contract":"contracts/Gameboard.sol:Gameboard","label":"height","offset":1,"slot":"0","type":"t_uint8"},{"astId":8,"contract":"contracts/Gameboard.sol:Gameboard","label":"color1","offset":2,"slot":"0","type":"t_uint32"},{"astId":10,"contract":"contracts/Gameboard.sol:Gameboard","label":"color2","offset":6,"slot":"0","type":"t_uint32"}],"types":{"t_uint32":{"encoding":"inplace","label":"uint32","numberOfBytes":"4"},"t_uint8":{"encoding":"inplace","label":"uint8","numberOfBytes":"1"}}},"userdoc":{"kind":"user","methods":{"getBoard()":{"notice":"returns gameboard parameters"},"setBoard(uint8,uint8,uint32,uint32)":{"notice":"set new gameboard params"}},"version":1}}}}