{
  "_format": "hh-sol-artifact-1",
  "contractName": "Gameboard",
  "sourceName": "contracts/Gameboard.sol",
  "abi": [
    {
      "inputs": [
        {
          "internalType": "uint8",
          "name": "width_",
          "type": "uint8"
        },
        {
          "internalType": "uint8",
          "name": "height_",
          "type": "uint8"
        },
        {
          "internalType": "uint32",
          "name": "color1_",
          "type": "uint32"
        },
        {
          "internalType": "uint32",
          "name": "color2_",
          "type": "uint32"
        }
      ],
      "stateMutability": "nonpayable",
      "type": "constructor"
    },
    {
      "inputs": [],
      "name": "color1",
      "outputs": [
        {
          "internalType": "uint32",
          "name": "",
          "type": "uint32"
        }
      ],
      "stateMutability": "view",
      "type": "function"
    },
    {
      "inputs": [],
      "name": "color2",
      "outputs": [
        {
          "internalType": "uint32",
          "name": "",
          "type": "uint32"
        }
      ],
      "stateMutability": "view",
      "type": "function"
    },
    {
      "inputs": [],
      "name": "getBoard",
      "outputs": [
        {
          "internalType": "uint8",
          "name": "",
          "type": "uint8"
        },
        {
          "internalType": "uint8",
          "name": "",
          "type": "uint8"
        },
        {
          "internalType": "uint32",
          "name": "",
          "type": "uint32"
        },
        {
          "internalType": "uint32",
          "name": "",
          "type": "uint32"
        }
      ],
      "stateMutability": "view",
      "type": "function"
    },
    {
      "inputs": [],
      "name": "height",
      "outputs": [
        {
          "internalType": "uint8",
          "name": "",
          "type": "uint8"
        }
      ],
      "stateMutability": "view",
      "type": "function"
    },
    {
      "inputs": [
        {
          "internalType": "uint8",
          "name": "width_",
          "type": "uint8"
        },
        {
          "internalType": "uint8",
          "name": "height_",
          "type": "uint8"
        },
        {
          "internalType": "uint32",
          "name": "color1_",
          "type": "uint32"
        },
        {
          "internalType": "uint32",
          "name": "color2_",
          "type": "uint32"
        }
      ],
      "name": "setBoard",
      "outputs": [],
      "stateMutability": "nonpayable",
      "type": "function"
    },
    {
      "inputs": [],
      "name": "width",
      "outputs": [
        {
          "internalType": "uint8",
          "name": "",
          "type": "uint8"
        }
      ],
      "stateMutability": "view",
      "type": "function"
    }
  ],
  "bytecode": "0x6080346100b757601f6102f538819003918201601f19168301916001600160401b038311848410176100bc578084926080946040528339810103126100b757610047816100d2565b9065ffffffff000061005b602083016100d2565b61ff00610076606061006f604087016100e0565b95016100e0565b60ff69ffffffff0000000000006000549260301b1696169060018060501b031916179160081b16179160101b16171760005560405161020390816100f28239f35b600080fd5b634e487b7160e01b600052604160045260246000fd5b519060ff821682036100b757565b519063ffffffff821682036100b75756fe60806040818152600436101561001457600080fd5b600091823560e01c9081630ef26743146101ad575080633264a34b146101675780635115bdff146101425780639ededf7714610123578063bb632c4d1461008c5763ef60f12a1461006457600080fd5b3461008857816003193601126100885763ffffffff6020925460301c169051908152f35b5080fd5b50346100885760803660031901126100885760043560ff811680910361011f576024359060ff8216820361011b576044359063ffffffff9283831683036101175760643593841684036101175761ff0065ffffffff00009269ffffffff00000000000088549660301b169569ffffffffffffffffffff1916179160081b16179160101b161717825551f35b8580fd5b8380fd5b8280fd5b503461008857816003193601126100885760ff60209254169051908152f35b503461008857816003193601126100885763ffffffff6020925460101c169051908152f35b5034610088578160031936011261008857608091549080519160ff8116835260ff8160081c16602084015263ffffffff91828260101c169084015260301c166060820152f35b83903461008857816003193601126100885760ff6020925460081c168152f3fea2646970667358221220a877c66767108c8c1eb4263b90d9f64fe7360ddfa7c00c268ab49b503594f1ba64736f6c63430008100033",
  "linkReferences": {},
  "deployedLinkReferences": {}
}