{
  "address": "0xc6cdDFBDcF9CCd36E42C668261d483c916c7A216",
  "abi": [
    {
      "inputs": [
        {
          "internalType": "uint8",
          "name": "width_",
          "type": "uint8"
        },
        {
          "internalType": "uint8",
          "name": "height_",
          "type": "uint8"
        },
        {
          "internalType": "uint32",
          "name": "color1_",
          "type": "uint32"
        },
        {
          "internalType": "uint32",
          "name": "color2_",
          "type": "uint32"
        }
      ],
      "stateMutability": "nonpayable",
      "type": "constructor"
    },
    {
      "inputs": [],
      "name": "color1",
      "outputs": [
        {
          "internalType": "uint32",
          "name": "",
          "type": "uint32"
        }
      ],
      "stateMutability": "view",
      "type": "function"
    },
    {
      "inputs": [],
      "name": "color2",
      "outputs": [
        {
          "internalType": "uint32",
          "name": "",
          "type": "uint32"
        }
      ],
      "stateMutability": "view",
      "type": "function"
    },
    {
      "inputs": [],
      "name": "getBoard",
      "outputs": [
        {
          "internalType": "uint8",
          "name": "",
          "type": "uint8"
        },
        {
          "internalType": "uint8",
          "name": "",
          "type": "uint8"
        },
        {
          "internalType": "uint32",
          "name": "",
          "type": "uint32"
        },
        {
          "internalType": "uint32",
          "name": "",
          "type": "uint32"
        }
      ],
      "stateMutability": "view",
      "type": "function"
    },
    {
      "inputs": [],
      "name": "height",
      "outputs": [
        {
          "internalType": "uint8",
          "name": "",
          "type": "uint8"
        }
      ],
      "stateMutability": "view",
      "type": "function"
    },
    {
      "inputs": [],
      "name": "width",
      "outputs": [
        {
          "internalType": "uint8",
          "name": "",
          "type": "uint8"
        }
      ],
      "stateMutability": "view",
      "type": "function"
    }
  ],
  "transactionHash": "0xa512c7b0a61443ef91cc702e213bc09cf40e09f811f92b19ec943574df6f05be",
  "args": [
    5,
    6,
    16711680,
    65280
  ],
  "numDeployments": 1,
  "solcInputHash": "916f9357774f318597cd8859a9dc579c",
  "bytecode": "0x6080346100b757601f61025338819003918201601f19168301916001600160401b038311848410176100bc578084926080946040528339810103126100b757610047816100d2565b9065ffffffff000061005b602083016100d2565b61ff00610076606061006f604087016100e0565b95016100e0565b60ff69ffffffff0000000000006000549260301b1696169060018060501b031916179160081b16179160101b16171760005560405161016190816100f28239f35b600080fd5b634e487b7160e01b600052604160045260246000fd5b519060ff821682036100b757565b519063ffffffff821682036100b75756fe60806040818152600436101561001457600080fd5b600091823560e01c9081630ef267431461010b575080633264a34b146100c55780635115bdff146100a05780639ededf77146100815763ef60f12a1461005957600080fd5b3461007d578160031936011261007d5763ffffffff6020925460301c169051908152f35b5080fd5b503461007d578160031936011261007d5760ff60209254169051908152f35b503461007d578160031936011261007d5763ffffffff6020925460101c169051908152f35b503461007d578160031936011261007d57608091549080519160ff8116835260ff8160081c16602084015263ffffffff91828260101c169084015260301c166060820152f35b83903461007d578160031936011261007d5760ff6020925460081c168152f3fea26469706673582212207eef004b52250982b73efde560abe12e77ee628e7659d6d903187fa19e6d3f1964736f6c63430008100033",
  "devdoc": {
    "kind": "dev",
    "methods": {
      "getBoard()": {
        "returns": {
          "_0": "width",
          "_1": "height",
          "_2": "color1",
          "_3": "color2"
        }
      }
    },
    "version": 1
  },
  "userdoc": {
    "kind": "user",
    "methods": {
      "getBoard()": {
        "notice": "returns gameboard parameters"
      }
    },
    "version": 1
  },
  "storageLayout": {
    "storage": [
      {
        "astId": 4,
        "contract": "contracts/Gameboard.sol:Gameboard",
        "label": "width",
        "offset": 0,
        "slot": "0",
        "type": "t_uint8"
      },
      {
        "astId": 6,
        "contract": "contracts/Gameboard.sol:Gameboard",
        "label": "height",
        "offset": 1,
        "slot": "0",
        "type": "t_uint8"
      },
      {
        "astId": 8,
        "contract": "contracts/Gameboard.sol:Gameboard",
        "label": "color1",
        "offset": 2,
        "slot": "0",
        "type": "t_uint32"
      },
      {
        "astId": 10,
        "contract": "contracts/Gameboard.sol:Gameboard",
        "label": "color2",
        "offset": 6,
        "slot": "0",
        "type": "t_uint32"
      }
    ],
    "types": {
      "t_uint32": {
        "encoding": "inplace",
        "label": "uint32",
        "numberOfBytes": "4"
      },
      "t_uint8": {
        "encoding": "inplace",
        "label": "uint8",
        "numberOfBytes": "1"
      }
    }
  }
}